{
  "address": "0x5a90E53bf58FA3758f61ffBE62b739dF9AfBa2d7",
  "abi": [
    {
      "inputs": [
        {
          "internalType": "contract IERC20",
          "name": "_rewardToken",
          "type": "address"
        },
        {
          "internalType": "uint256",
          "name": "_rewardsPerBlock",
          "type": "uint256"
        }
      ],
      "stateMutability": "nonpayable",
      "type": "constructor"
    },
    {
      "anonymous": false,
      "inputs": [
        {
          "indexed": true,
          "internalType": "address",
          "name": "user",
          "type": "address"
        },
        {
          "indexed": false,
          "internalType": "uint256",
          "name": "amount",
          "type": "uint256"
        }
      ],
      "name": "Claim",
      "type": "event"
    },
    {
      "anonymous": false,
      "inputs": [
        {
          "indexed": true,
          "internalType": "address",
          "name": "user",
          "type": "address"
        },
        {
          "indexed": false,
          "internalType": "uint256",
          "name": "amount",
          "type": "uint256"
        }
      ],
      "name": "Deposit",
      "type": "event"
    },
    {
      "anonymous": false,
      "inputs": [
        {
          "indexed": true,
          "internalType": "address",
          "name": "previousOwner",
          "type": "address"
        },
        {
          "indexed": true,
          "internalType": "address",
          "name": "newOwner",
          "type": "address"
        }
      ],
      "name": "OwnershipTransferred",
      "type": "event"
    },
    {
      "anonymous": false,
      "inputs": [
        {
          "indexed": true,
          "internalType": "address",
          "name": "user",
          "type": "address"
        },
        {
          "indexed": false,
          "internalType": "uint256",
          "name": "amount",
          "type": "uint256"
        }
      ],
      "name": "Withdraw",
      "type": "event"
    },
    {
      "inputs": [],
      "name": "claim",
      "outputs": [],
      "stateMutability": "nonpayable",
      "type": "function"
    },
    {
      "inputs": [],
      "name": "deposit",
      "outputs": [],
      "stateMutability": "payable",
      "type": "function"
    },
    {
      "inputs": [
        {
          "internalType": "uint256",
          "name": "_amount",
          "type": "uint256"
        }
      ],
      "name": "emergencyWithdrawETH",
      "outputs": [],
      "stateMutability": "nonpayable",
      "type": "function"
    },
    {
      "inputs": [
        {
          "internalType": "uint256",
          "name": "_amount",
          "type": "uint256"
        }
      ],
      "name": "emergencyWithdrawRewardTokens",
      "outputs": [],
      "stateMutability": "nonpayable",
      "type": "function"
    },
    {
      "inputs": [],
      "name": "lastRewardBlock",
      "outputs": [
        {
          "internalType": "uint256",
          "name": "",
          "type": "uint256"
        }
      ],
      "stateMutability": "view",
      "type": "function"
    },
    {
      "inputs": [],
      "name": "owner",
      "outputs": [
        {
          "internalType": "address",
          "name": "",
          "type": "address"
        }
      ],
      "stateMutability": "view",
      "type": "function"
    },
    {
      "inputs": [
        {
          "internalType": "address",
          "name": "_user",
          "type": "address"
        }
      ],
      "name": "pendingRewards",
      "outputs": [
        {
          "internalType": "uint256",
          "name": "",
          "type": "uint256"
        }
      ],
      "stateMutability": "view",
      "type": "function"
    },
    {
      "inputs": [],
      "name": "renounceOwnership",
      "outputs": [],
      "stateMutability": "nonpayable",
      "type": "function"
    },
    {
      "inputs": [],
      "name": "rewardToken",
      "outputs": [
        {
          "internalType": "contract IERC20",
          "name": "",
          "type": "address"
        }
      ],
      "stateMutability": "view",
      "type": "function"
    },
    {
      "inputs": [],
      "name": "rewardsPerBlock",
      "outputs": [
        {
          "internalType": "uint256",
          "name": "",
          "type": "uint256"
        }
      ],
      "stateMutability": "view",
      "type": "function"
    },
    {
      "inputs": [
        {
          "internalType": "uint256",
          "name": "_rewardsPerBlock",
          "type": "uint256"
        }
      ],
      "name": "setRewardsPerBlock",
      "outputs": [],
      "stateMutability": "nonpayable",
      "type": "function"
    },
    {
      "inputs": [
        {
          "internalType": "address",
          "name": "",
          "type": "address"
        }
      ],
      "name": "stakers",
      "outputs": [
        {
          "internalType": "uint256",
          "name": "stakedAmount",
          "type": "uint256"
        },
        {
          "internalType": "uint256",
          "name": "rewardDebt",
          "type": "uint256"
        }
      ],
      "stateMutability": "view",
      "type": "function"
    },
    {
      "inputs": [],
      "name": "totalStaked",
      "outputs": [
        {
          "internalType": "uint256",
          "name": "",
          "type": "uint256"
        }
      ],
      "stateMutability": "view",
      "type": "function"
    },
    {
      "inputs": [
        {
          "internalType": "address",
          "name": "newOwner",
          "type": "address"
        }
      ],
      "name": "transferOwnership",
      "outputs": [],
      "stateMutability": "nonpayable",
      "type": "function"
    },
    {
      "inputs": [
        {
          "internalType": "uint256",
          "name": "_amount",
          "type": "uint256"
        }
      ],
      "name": "withdraw",
      "outputs": [],
      "stateMutability": "nonpayable",
      "type": "function"
    }
  ],
  "transactionHash": "0xa4cc874191864627bf80dba513b39000c022dc9b95e0f32c8dc649125f627910",
  "args": [
    "0x99a25f8515642cDE3c8e0D281f05B7BE0A97FCFb",
    "4000000000000000000"
  ],
  "numDeployments": 1,
  "solcInputHash": "15797c2dbde7b8019749448e45dd1247",
  "bytecode": "0x608060405234801561001057600080fd5b50604051610ee8380380610ee883398101604081905261002f916100bc565b600160005561003d3361006a565b600280546001600160a01b0319166001600160a01b039390931692909217909155600355436006556100f6565b600180546001600160a01b038381166001600160a01b0319831681179093556040519116919082907f8be0079c531659141344cd1fd0a4f28419497f9722a3daafe3b4186f6b6457e090600090a35050565b600080604083850312156100cf57600080fd5b82516001600160a01b03811681146100e657600080fd5b6020939093015192949293505050565b610de3806101056000396000f3fe6080604052600436106100e85760003560e01c8063817b1cd21161008a578063a9f8d18111610059578063a9f8d18114610273578063d0e30db014610289578063f2fde38b14610291578063f7c618c1146102b157600080fd5b8063817b1cd2146101c25780638da5cb5b146101d85780639168ae721461020a578063a1003b291461025357600080fd5b80634e71d92d116100c65780634e71d92d146101625780635eeb6710146101775780636b792c4b1461018d578063715018a6146101ad57600080fd5b80632e1a7d4d146100ed5780632f79e10d1461010f57806331d7a2621461012f575b600080fd5b3480156100f957600080fd5b5061010d610108366004610c54565b6102d1565b005b34801561011b57600080fd5b5061010d61012a366004610c54565b61043b565b34801561013b57600080fd5b5061014f61014a366004610c6d565b61046b565b6040519081526020015b60405180910390f35b34801561016e57600080fd5b5061010d6104ff565b34801561018357600080fd5b5061014f60035481565b34801561019957600080fd5b5061010d6101a8366004610c54565b6105ec565b3480156101b957600080fd5b5061010d610632565b3480156101ce57600080fd5b5061014f60055481565b3480156101e457600080fd5b506001546001600160a01b03165b6040516001600160a01b039091168152602001610159565b34801561021657600080fd5b5061023e610225366004610c6d565b6004602052600090815260409020805460019091015482565b60408051928352602083019190915201610159565b34801561025f57600080fd5b5061010d61026e366004610c54565b610644565b34801561027f57600080fd5b5061014f60065481565b61010d610659565b34801561029d57600080fd5b5061010d6102ac366004610c6d565b610786565b3480156102bd57600080fd5b506002546101f2906001600160a01b031681565b6102d96107fc565b336000908152600460205260409020805482111561033e5760405162461bcd60e51b815260206004820152601a60248201527f496e73756666696369656e74207374616b656420616d6f756e7400000000000060448201526064015b60405180910390fd5b610346610855565b60006103513361046b565b9050801561037057600254610370906001600160a01b031633836108ff565b82156103be578282600001600082825461038a9190610cb3565b9091555050604051339084156108fc029085906000818181858888f193505050501580156103bc573d6000803e3d6000fd5b505b60055482546103ce908290610ccc565b6103d89190610ce3565b826001018190555082600560008282546103f29190610cb3565b909155505060405183815233907f884edad9ce6fa2440d8a54cc123490eb96d2768479d49ff9c7366125a94243649060200160405180910390a250506104386001600055565b50565b610443610956565b6104386104586001546001600160a01b031690565b6002546001600160a01b031690836108ff565b6001600160a01b0381166000908152600460205260408120805460065443111580610494575080155b156104a3575060009392505050565b6000600654436104b39190610cb3565b90506000600354826104c59190610ccc565b9050600060055484836104d89190610ccc565b6104e29190610ce3565b90508460010154816104f49190610cb3565b979650505050505050565b6105076107fc565b33600090815260046020526040902080546105575760405162461bcd60e51b815260206004820152601060248201526f139bc81cdd185ad95908185b5bdd5b9d60821b6044820152606401610335565b61055f610855565b600061056a3361046b565b905080156105de576005548254610582908290610ccc565b61058c9190610ce3565b60018301556002546105a8906001600160a01b031633836108ff565b60405181815233907f47cee97cb7acd717b3c0aa1435d004cd5b3c8c57d70dbceb4e4458bbd60e39d49060200160405180910390a25b50506105ea6001600055565b565b6105f4610956565b6001546040516001600160a01b039091169082156108fc029083906000818181858888f1935050505015801561062e573d6000803e3d6000fd5b5050565b61063a610956565b6105ea60006109b0565b61064c610956565b610654610855565b600355565b6106616107fc565b600034116106aa5760405162461bcd60e51b8152602060048201526016602482015275139bc8115512081cd95b9d081d1bc819195c1bdcda5d60521b6044820152606401610335565b6106b2610855565b3360009081526004602052604090208054156106f45760006106d33361046b565b905080156106f2576002546106f2906001600160a01b031633836108ff565b505b348160000160008282546107089190610d05565b9091555050600554815461071d908290610ccc565b6107279190610ce3565b816001018190555034600560008282546107419190610d05565b909155505060405134815233907fe1fffcc4923d04b559f4d29a8bfc6cda04eb5b0d3c460751c2402c5c5cc9109c9060200160405180910390a2506105ea6001600055565b61078e610956565b6001600160a01b0381166107f35760405162461bcd60e51b815260206004820152602660248201527f4f776e61626c653a206e6577206f776e657220697320746865207a65726f206160448201526564647265737360d01b6064820152608401610335565b610438816109b0565b60026000540361084e5760405162461bcd60e51b815260206004820152601f60248201527f5265656e7472616e637947756172643a207265656e7472616e742063616c6c006044820152606401610335565b6002600055565b600654431161086057565b6005546000036108705743600655565b6000600654436108809190610cb3565b90506000600354826108929190610ccc565b436006556002546040516340c10f1960e01b8152306004820152602481018390529192506001600160a01b0316906340c10f1990604401600060405180830381600087803b1580156108e357600080fd5b505af11580156108f7573d6000803e3d6000fd5b505050505050565b604080516001600160a01b038416602482015260448082018490528251808303909101815260649091019091526020810180516001600160e01b031663a9059cbb60e01b179052610951908490610a02565b505050565b6001546001600160a01b031633146105ea5760405162461bcd60e51b815260206004820181905260248201527f4f776e61626c653a2063616c6c6572206973206e6f7420746865206f776e65726044820152606401610335565b600180546001600160a01b038381166001600160a01b0319831681179093556040519116919082907f8be0079c531659141344cd1fd0a4f28419497f9722a3daafe3b4186f6b6457e090600090a35050565b6000610a57826040518060400160405280602081526020017f5361666545524332303a206c6f772d6c6576656c2063616c6c206661696c6564815250856001600160a01b0316610ad49092919063ffffffff16565b8051909150156109515780806020019051810190610a759190610d18565b6109515760405162461bcd60e51b815260206004820152602a60248201527f5361666545524332303a204552433230206f7065726174696f6e20646964206e6044820152691bdd081cdd58d8d9595960b21b6064820152608401610335565b6060610ae38484600085610aeb565b949350505050565b606082471015610b4c5760405162461bcd60e51b815260206004820152602660248201527f416464726573733a20696e73756666696369656e742062616c616e636520666f6044820152651c8818d85b1b60d21b6064820152608401610335565b600080866001600160a01b03168587604051610b689190610d5e565b60006040518083038185875af1925050503d8060008114610ba5576040519150601f19603f3d011682016040523d82523d6000602084013e610baa565b606091505b50915091506104f48783838760608315610c25578251600003610c1e576001600160a01b0385163b610c1e5760405162461bcd60e51b815260206004820152601d60248201527f416464726573733a2063616c6c20746f206e6f6e2d636f6e74726163740000006044820152606401610335565b5081610ae3565b610ae38383815115610c3a5781518083602001fd5b8060405162461bcd60e51b81526004016103359190610d7a565b600060208284031215610c6657600080fd5b5035919050565b600060208284031215610c7f57600080fd5b81356001600160a01b0381168114610c9657600080fd5b9392505050565b634e487b7160e01b600052601160045260246000fd5b81810381811115610cc657610cc6610c9d565b92915050565b8082028115828204841417610cc657610cc6610c9d565b600082610d0057634e487b7160e01b600052601260045260246000fd5b500490565b80820180821115610cc657610cc6610c9d565b600060208284031215610d2a57600080fd5b81518015158114610c9657600080fd5b60005b83811015610d55578181015183820152602001610d3d565b50506000910152565b60008251610d70818460208701610d3a565b9190910192915050565b6020815260008251806020840152610d99816040850160208701610d3a565b601f01601f1916919091016040019291505056fea26469706673582212204e94934da226123e1ec53a72d646abf0f6b74e318aada2333e4ada1793b344e964736f6c63430008110033",
  "devdoc": {
    "kind": "dev",
    "methods": {
      "owner()": {
        "details": "Returns the address of the current owner."
      },
      "renounceOwnership()": {
        "details": "Leaves the contract without owner. It will not be possible to call `onlyOwner` functions anymore. Can only be called by the current owner. NOTE: Renouncing ownership will leave the contract without an owner, thereby removing any functionality that is only available to the owner."
      },
      "transferOwnership(address)": {
        "details": "Transfers ownership of the contract to a new account (`newOwner`). Can only be called by the current owner."
      }
    },
    "version": 1
  },
  "userdoc": {
    "kind": "user",
    "methods": {},
    "version": 1
  },
  "storageLayout": {
    "storage": [
      {
        "astId": 123,
        "contract": "contracts/MockStaking.sol:MockStaking",
        "label": "_status",
        "offset": 0,
        "slot": "0",
        "type": "t_uint256"
      },
      {
        "astId": 7,
        "contract": "contracts/MockStaking.sol:MockStaking",
        "label": "_owner",
        "offset": 0,
        "slot": "1",
        "type": "t_address"
      },
      {
        "astId": 931,
        "contract": "contracts/MockStaking.sol:MockStaking",
        "label": "rewardToken",
        "offset": 0,
        "slot": "2",
        "type": "t_contract(IERC20)244"
      },
      {
        "astId": 933,
        "contract": "contracts/MockStaking.sol:MockStaking",
        "label": "rewardsPerBlock",
        "offset": 0,
        "slot": "3",
        "type": "t_uint256"
      },
      {
        "astId": 943,
        "contract": "contracts/MockStaking.sol:MockStaking",
        "label": "stakers",
        "offset": 0,
        "slot": "4",
        "type": "t_mapping(t_address,t_struct(Staker)938_storage)"
      },
      {
        "astId": 945,
        "contract": "contracts/MockStaking.sol:MockStaking",
        "label": "totalStaked",
        "offset": 0,
        "slot": "5",
        "type": "t_uint256"
      },
      {
        "astId": 947,
        "contract": "contracts/MockStaking.sol:MockStaking",
        "label": "lastRewardBlock",
        "offset": 0,
        "slot": "6",
        "type": "t_uint256"
      }
    ],
    "types": {
      "t_address": {
        "encoding": "inplace",
        "label": "address",
        "numberOfBytes": "20"
      },
      "t_contract(IERC20)244": {
        "encoding": "inplace",
        "label": "contract IERC20",
        "numberOfBytes": "20"
      },
      "t_mapping(t_address,t_struct(Staker)938_storage)": {
        "encoding": "mapping",
        "key": "t_address",
        "label": "mapping(address => struct MockStaking.Staker)",
        "numberOfBytes": "32",
        "value": "t_struct(Staker)938_storage"
      },
      "t_struct(Staker)938_storage": {
        "encoding": "inplace",
        "label": "struct MockStaking.Staker",
        "members": [
          {
            "astId": 935,
            "contract": "contracts/MockStaking.sol:MockStaking",
            "label": "stakedAmount",
            "offset": 0,
            "slot": "0",
            "type": "t_uint256"
          },
          {
            "astId": 937,
            "contract": "contracts/MockStaking.sol:MockStaking",
            "label": "rewardDebt",
            "offset": 0,
            "slot": "1",
            "type": "t_uint256"
          }
        ],
        "numberOfBytes": "64"
      },
      "t_uint256": {
        "encoding": "inplace",
        "label": "uint256",
        "numberOfBytes": "32"
      }
    }
  }
}