{
  "address": "0x07A583000b1C86b159e065D16c05fbD5A14f92A8",
  "abi": [
    {
      "inputs": [],
      "stateMutability": "nonpayable",
      "type": "constructor"
    },
    {
      "anonymous": false,
      "inputs": [
        {
          "indexed": true,
          "internalType": "address",
          "name": "sender",
          "type": "address"
        },
        {
          "indexed": false,
          "internalType": "uint256",
          "name": "amount",
          "type": "uint256"
        },
        {
          "indexed": false,
          "internalType": "string",
          "name": "orderId",
          "type": "string"
        },
        {
          "indexed": false,
          "internalType": "uint256",
          "name": "paymentId",
          "type": "uint256"
        },
        {
          "indexed": false,
          "internalType": "bytes",
          "name": "data",
          "type": "bytes"
        }
      ],
      "name": "PaymentReceived",
      "type": "event"
    },
    {
      "inputs": [
        {
          "internalType": "string",
          "name": "orderId",
          "type": "string"
        },
        {
          "internalType": "bytes",
          "name": "data",
          "type": "bytes"
        }
      ],
      "name": "createPayment",
      "outputs": [],
      "stateMutability": "payable",
      "type": "function"
    },
    {
      "inputs": [],
      "name": "owner",
      "outputs": [
        {
          "internalType": "address",
          "name": "",
          "type": "address"
        }
      ],
      "stateMutability": "view",
      "type": "function"
    },
    {
      "inputs": [],
      "name": "paymentId",
      "outputs": [
        {
          "internalType": "uint256",
          "name": "",
          "type": "uint256"
        }
      ],
      "stateMutability": "view",
      "type": "function"
    },
    {
      "inputs": [
        {
          "internalType": "address payable",
          "name": "_to",
          "type": "address"
        }
      ],
      "name": "withdrawFunds",
      "outputs": [],
      "stateMutability": "nonpayable",
      "type": "function"
    }
  ],
  "transactionHash": "0xd43d5828eb976e2a92f9b27a85a6c907b624cfabb1aaaf3ecddec3e3c0f948cb",
  "args": [],
  "numDeployments": 1,
  "solcInputHash": "5dcef198d4c54fdc6df26db4a4e82dc5",
  "bytecode": "0x60806040526000805534801561001457600080fd5b50600180546001600160a01b031916331790556103fc806100366000396000f3fe60806040526004361061003f5760003560e01c806325bd4639146100445780633ed2c1a31461006d57806368742da6146100825780638da5cb5b146100a2575b600080fd5b34801561005057600080fd5b5061005a60005481565b6040519081526020015b60405180910390f35b61008061007b36600461025e565b6100da565b005b34801561008e57600080fd5b5061008061009d3660046102ed565b61013b565b3480156100ae57600080fd5b506001546100c2906001600160a01b031681565b6040516001600160a01b039091168152602001610064565b6000805490806100e98361031d565b9190505550336001600160a01b03167f826d6667028847f16a72c3d9da64a9fbdbfb76832447ca012c4234885924569434846000548560405161012f949392919061038a565b60405180910390a25050565b6001546001600160a01b031633146101995760405162461bcd60e51b815260206004820152601d60248201527f4f6e6c79206f776e65722063616e2077697468647261772066756e6473000000604482015260640160405180910390fd5b6040516001600160a01b038216904780156108fc02916000818181858888f193505050501580156101ce573d6000803e3d6000fd5b5050565b634e487b7160e01b600052604160045260246000fd5b600067ffffffffffffffff80841115610203576102036101d2565b604051601f8501601f19908116603f0116810190828211818310171561022b5761022b6101d2565b8160405280935085815286868601111561024457600080fd5b858560208301376000602087830101525050509392505050565b6000806040838503121561027157600080fd5b823567ffffffffffffffff8082111561028957600080fd5b818501915085601f83011261029d57600080fd5b6102ac868335602085016101e8565b935060208501359150808211156102c257600080fd5b508301601f810185136102d457600080fd5b6102e3858235602084016101e8565b9150509250929050565b6000602082840312156102ff57600080fd5b81356001600160a01b038116811461031657600080fd5b9392505050565b60006001820161033d57634e487b7160e01b600052601160045260246000fd5b5060010190565b6000815180845260005b8181101561036a5760208185018101518683018201520161034e565b506000602082860101526020601f19601f83011685010191505092915050565b8481526080602082015260006103a36080830186610344565b84604084015282810360608401526103bb8185610344565b97965050505050505056fea264697066735822122029db4a66561c4f36d9d2b5c2c4729ed8f0c60f91a1d0cd6527a6c73bdb3547dd64736f6c63430008110033",
  "devdoc": {
    "kind": "dev",
    "methods": {
      "createPayment(string,bytes)": {
        "params": {
          "data": "Data",
          "orderId": "Order ID"
        }
      },
      "withdrawFunds(address)": {
        "params": {
          "_to": "Recipient of the funds"
        }
      }
    },
    "version": 1
  },
  "userdoc": {
    "kind": "user",
    "methods": {
      "createPayment(string,bytes)": {
        "notice": "Create a payment"
      },
      "withdrawFunds(address)": {
        "notice": "Withdraw funds from the contract"
      }
    },
    "version": 1
  },
  "storageLayout": {
    "storage": [
      {
        "astId": 4,
        "contract": "contracts/AutopassPaymentGateway.sol:AutopassPaymentGateway",
        "label": "paymentId",
        "offset": 0,
        "slot": "0",
        "type": "t_uint256"
      },
      {
        "astId": 6,
        "contract": "contracts/AutopassPaymentGateway.sol:AutopassPaymentGateway",
        "label": "owner",
        "offset": 0,
        "slot": "1",
        "type": "t_address"
      }
    ],
    "types": {
      "t_address": {
        "encoding": "inplace",
        "label": "address",
        "numberOfBytes": "20"
      },
      "t_uint256": {
        "encoding": "inplace",
        "label": "uint256",
        "numberOfBytes": "32"
      }
    }
  }
}