{
  "address": "0x76Aa9c54C014dA011b30656764aED9F27F82e85F",
  "abi": [
    {
      "inputs": [
        {
          "internalType": "address",
          "name": "_safe",
          "type": "address"
        }
      ],
      "stateMutability": "nonpayable",
      "type": "constructor"
    },
    {
      "anonymous": false,
      "inputs": [
        {
          "indexed": true,
          "internalType": "address",
          "name": "sender",
          "type": "address"
        },
        {
          "indexed": false,
          "internalType": "uint256",
          "name": "amount",
          "type": "uint256"
        },
        {
          "indexed": false,
          "internalType": "string",
          "name": "orderId",
          "type": "string"
        },
        {
          "indexed": false,
          "internalType": "uint256",
          "name": "paymentId",
          "type": "uint256"
        },
        {
          "indexed": false,
          "internalType": "bytes",
          "name": "data",
          "type": "bytes"
        }
      ],
      "name": "PaymentReceived",
      "type": "event"
    },
    {
      "inputs": [
        {
          "internalType": "string",
          "name": "orderId",
          "type": "string"
        },
        {
          "internalType": "bytes",
          "name": "data",
          "type": "bytes"
        }
      ],
      "name": "createPayment",
      "outputs": [],
      "stateMutability": "payable",
      "type": "function"
    },
    {
      "inputs": [],
      "name": "owner",
      "outputs": [
        {
          "internalType": "address",
          "name": "",
          "type": "address"
        }
      ],
      "stateMutability": "view",
      "type": "function"
    },
    {
      "inputs": [],
      "name": "paymentId",
      "outputs": [
        {
          "internalType": "uint256",
          "name": "",
          "type": "uint256"
        }
      ],
      "stateMutability": "view",
      "type": "function"
    },
    {
      "inputs": [
        {
          "internalType": "address",
          "name": "_safe",
          "type": "address"
        }
      ],
      "name": "setOwner",
      "outputs": [],
      "stateMutability": "nonpayable",
      "type": "function"
    }
  ],
  "transactionHash": "0xb677086fd555c6d0642823d63f6dfa6f64942b59379977625c889a8252f06235",
  "args": [
    "0x50865b07e1635066Aa2278b318B4547C9E721000"
  ],
  "numDeployments": 2,
  "solcInputHash": "721e31905c7d11cf61562ccbb71e3196",
  "bytecode": "0x60806040526000805534801561001457600080fd5b5060405161045338038061045383398101604081905261003391610058565b600180546001600160a01b0319166001600160a01b0392909216919091179055610088565b60006020828403121561006a57600080fd5b81516001600160a01b038116811461008157600080fd5b9392505050565b6103bc806100976000396000f3fe60806040526004361061003f5760003560e01c806313af40351461004457806325bd4639146100835780633ed2c1a3146100ac5780638da5cb5b146100bf575b600080fd5b34801561005057600080fd5b5061008161005f366004610192565b600180546001600160a01b0319166001600160a01b0392909216919091179055565b005b34801561008f57600080fd5b5061009960005481565b6040519081526020015b60405180910390f35b6100816100ba36600461024e565b6100f7565b3480156100cb57600080fd5b506001546100df906001600160a01b031681565b6040516001600160a01b0390911681526020016100a3565b600080549080610106836102dd565b90915550506001546040516001600160a01b03909116903480156108fc02916000818181858888f19350505050158015610144573d6000803e3d6000fd5b50336001600160a01b03167f826d6667028847f16a72c3d9da64a9fbdbfb76832447ca012c42348859245694348460005485604051610186949392919061034a565b60405180910390a25050565b6000602082840312156101a457600080fd5b81356001600160a01b03811681146101bb57600080fd5b9392505050565b634e487b7160e01b600052604160045260246000fd5b600067ffffffffffffffff808411156101f3576101f36101c2565b604051601f8501601f19908116603f0116810190828211818310171561021b5761021b6101c2565b8160405280935085815286868601111561023457600080fd5b858560208301376000602087830101525050509392505050565b6000806040838503121561026157600080fd5b823567ffffffffffffffff8082111561027957600080fd5b818501915085601f83011261028d57600080fd5b61029c868335602085016101d8565b935060208501359150808211156102b257600080fd5b508301601f810185136102c457600080fd5b6102d3858235602084016101d8565b9150509250929050565b6000600182016102fd57634e487b7160e01b600052601160045260246000fd5b5060010190565b6000815180845260005b8181101561032a5760208185018101518683018201520161030e565b506000602082860101526020601f19601f83011685010191505092915050565b8481526080602082015260006103636080830186610304565b846040840152828103606084015261037b8185610304565b97965050505050505056fea264697066735822122055717d16d9509339ff3a27edd16134607661f594d5e3aac6514eeafd193346df64736f6c63430008110033",
  "devdoc": {
    "kind": "dev",
    "methods": {
      "createPayment(string,bytes)": {
        "params": {
          "data": "Data",
          "orderId": "Order ID"
        }
      }
    },
    "version": 1
  },
  "userdoc": {
    "kind": "user",
    "methods": {
      "createPayment(string,bytes)": {
        "notice": "Create a payment"
      }
    },
    "version": 1
  },
  "storageLayout": {
    "storage": [
      {
        "astId": 4,
        "contract": "contracts/AutopassPaymentGateway.sol:AutopassPaymentGateway",
        "label": "paymentId",
        "offset": 0,
        "slot": "0",
        "type": "t_uint256"
      },
      {
        "astId": 6,
        "contract": "contracts/AutopassPaymentGateway.sol:AutopassPaymentGateway",
        "label": "owner",
        "offset": 0,
        "slot": "1",
        "type": "t_address"
      }
    ],
    "types": {
      "t_address": {
        "encoding": "inplace",
        "label": "address",
        "numberOfBytes": "20"
      },
      "t_uint256": {
        "encoding": "inplace",
        "label": "uint256",
        "numberOfBytes": "32"
      }
    }
  }
}