{
  "address": "0x0ddb8d8c60D1b2621afaa96990D62C46F99aa029",
  "abi": [
    {
      "inputs": [
        {
          "internalType": "address",
          "name": "_rewardToken",
          "type": "address"
        },
        {
          "internalType": "uint256",
          "name": "_rewardPerBlock",
          "type": "uint256"
        },
        {
          "internalType": "uint256",
          "name": "_startBlock",
          "type": "uint256"
        },
        {
          "internalType": "uint256",
          "name": "_endBlock",
          "type": "uint256"
        }
      ],
      "stateMutability": "nonpayable",
      "type": "constructor"
    },
    {
      "anonymous": false,
      "inputs": [
        {
          "indexed": true,
          "internalType": "address",
          "name": "user",
          "type": "address"
        },
        {
          "indexed": false,
          "internalType": "uint256",
          "name": "amount",
          "type": "uint256"
        }
      ],
      "name": "Deposit",
      "type": "event"
    },
    {
      "anonymous": false,
      "inputs": [
        {
          "indexed": true,
          "internalType": "address",
          "name": "user",
          "type": "address"
        },
        {
          "indexed": false,
          "internalType": "uint256",
          "name": "amount",
          "type": "uint256"
        }
      ],
      "name": "EmergencyWithdraw",
      "type": "event"
    },
    {
      "anonymous": false,
      "inputs": [
        {
          "indexed": false,
          "internalType": "uint256",
          "name": "accRewardPerShare",
          "type": "uint256"
        },
        {
          "indexed": false,
          "internalType": "uint256",
          "name": "lastRewardBlock",
          "type": "uint256"
        }
      ],
      "name": "PoolUpdate",
      "type": "event"
    },
    {
      "anonymous": false,
      "inputs": [
        {
          "indexed": true,
          "internalType": "address",
          "name": "user",
          "type": "address"
        },
        {
          "indexed": false,
          "internalType": "uint256",
          "name": "amount",
          "type": "uint256"
        }
      ],
      "name": "Withdraw",
      "type": "event"
    },
    {
      "inputs": [],
      "name": "bonusEndBlock",
      "outputs": [
        {
          "internalType": "uint256",
          "name": "",
          "type": "uint256"
        }
      ],
      "stateMutability": "view",
      "type": "function"
    },
    {
      "inputs": [],
      "name": "deposit",
      "outputs": [],
      "stateMutability": "payable",
      "type": "function"
    },
    {
      "inputs": [
        {
          "internalType": "address",
          "name": "_user",
          "type": "address"
        }
      ],
      "name": "pendingReward",
      "outputs": [
        {
          "internalType": "uint256",
          "name": "",
          "type": "uint256"
        }
      ],
      "stateMutability": "view",
      "type": "function"
    },
    {
      "inputs": [],
      "name": "poolInfo",
      "outputs": [
        {
          "internalType": "uint256",
          "name": "lastRewardBlock",
          "type": "uint256"
        },
        {
          "internalType": "uint256",
          "name": "accRewardPerShare",
          "type": "uint256"
        }
      ],
      "stateMutability": "view",
      "type": "function"
    },
    {
      "inputs": [],
      "name": "rewardPerBlock",
      "outputs": [
        {
          "internalType": "uint256",
          "name": "",
          "type": "uint256"
        }
      ],
      "stateMutability": "view",
      "type": "function"
    },
    {
      "inputs": [],
      "name": "rewardToken",
      "outputs": [
        {
          "internalType": "contract IERC20",
          "name": "",
          "type": "address"
        }
      ],
      "stateMutability": "view",
      "type": "function"
    },
    {
      "inputs": [],
      "name": "startBlock",
      "outputs": [
        {
          "internalType": "uint256",
          "name": "",
          "type": "uint256"
        }
      ],
      "stateMutability": "view",
      "type": "function"
    },
    {
      "inputs": [],
      "name": "totalrewardToken",
      "outputs": [
        {
          "internalType": "uint256",
          "name": "",
          "type": "uint256"
        }
      ],
      "stateMutability": "view",
      "type": "function"
    },
    {
      "inputs": [],
      "name": "updatePool",
      "outputs": [],
      "stateMutability": "nonpayable",
      "type": "function"
    },
    {
      "inputs": [
        {
          "internalType": "address",
          "name": "",
          "type": "address"
        }
      ],
      "name": "userInfo",
      "outputs": [
        {
          "internalType": "uint256",
          "name": "amount",
          "type": "uint256"
        },
        {
          "internalType": "uint256",
          "name": "rewardDebt",
          "type": "uint256"
        }
      ],
      "stateMutability": "view",
      "type": "function"
    },
    {
      "inputs": [
        {
          "internalType": "uint256",
          "name": "_amount",
          "type": "uint256"
        }
      ],
      "name": "withdraw",
      "outputs": [],
      "stateMutability": "nonpayable",
      "type": "function"
    }
  ],
  "transactionHash": "0x8b843ced1a8b0733b08bfe241752c70b378417c8b1326f9901fccd5cb655bc64",
  "args": [
    "0x4e7cACeE6D75BF7F63A44331a5C3D6AA1b57B634",
    "10000000000000000000",
    3589426,
    3599426
  ],
  "numDeployments": 1,
  "solcInputHash": "32fa7ec8a6c1edfd3ab0aecb209c0fd4",
  "bytecode": "0x608060405234801561001057600080fd5b50604051610b41380380610b4183398101604081905261002f9161007e565b600080546001600160a01b0319166001600160a01b03959095169490941784556001929092556006819055600791909155604080518082019091528181526020018290526003556004556100c9565b6000806000806080858703121561009457600080fd5b84516001600160a01b03811681146100ab57600080fd5b60208601516040870151606090970151919890975090945092505050565b610a69806100d86000396000f3fe60806040526004361061009c5760003560e01c80636c5909e0116100645780636c5909e0146101665780638ae39cac1461017c578063d0e30db014610192578063e3161ddd1461019a578063f40f0f52146101af578063f7c618c1146101cf57600080fd5b80631959a002146100a15780631aed6553146100ef5780632e1a7d4d1461011357806348cd4cb1146101355780635a2f3d091461014b575b600080fd5b3480156100ad57600080fd5b506100d56100bc3660046108c3565b6005602052600090815260409020805460019091015482565b604080519283526020830191909152015b60405180910390f35b3480156100fb57600080fd5b5061010560075481565b6040519081526020016100e6565b34801561011f57600080fd5b5061013361012e3660046108f3565b610207565b005b34801561014157600080fd5b5061010560065481565b34801561015757600080fd5b506003546004546100d5919082565b34801561017257600080fd5b5061010560025481565b34801561018857600080fd5b5061010560015481565b610133610368565b3480156101a657600080fd5b5061013361045a565b3480156101bb57600080fd5b506101056101ca3660046108c3565b61050f565b3480156101db57600080fd5b506000546101ef906001600160a01b031681565b6040516001600160a01b0390911681526020016100e6565b33600090815260056020526040902080548211156102615760405162461bcd60e51b81526020600482015260126024820152711dda5d1a191c985dce881b9bdd0819dbdbd960721b60448201526064015b60405180910390fd5b61026961045a565b600181015460045482546000929164e8d4a51000916102889190610922565b6102929190610941565b61029c9190610963565b6000549091506102b6906001600160a01b031633836105cc565b81546102c3908490610963565b80835560045464e8d4a51000916102da9190610922565b6102e49190610941565b6001830155604051339084156108fc029085906000818181858888f19350505050158015610316573d6000803e3d6000fd5b5082600260008282546103299190610963565b909155505060405183815233907f884edad9ce6fa2440d8a54cc123490eb96d2768479d49ff9c7366125a94243649060200160405180910390a2505050565b33600090815260056020526040902061037f61045a565b8054156103d557600181015460045482546000929164e8d4a51000916103a59190610922565b6103af9190610941565b6103b99190610963565b6000549091506103d3906001600160a01b031633836105cc565b505b80546103e290349061097a565b80825560045464e8d4a51000916103f99190610922565b6104039190610941565b8160010181905550346002600082825461041d919061097a565b909155505060405134815233907fe1fffcc4923d04b559f4d29a8bfc6cda04eb5b0d3c460751c2402c5c5cc9109c9060200160405180910390a250565b600354431161046557565b60025480610474575043600355565b600061048560036000015443610623565b90506000600154826104979190610922565b9050826104a98264e8d4a51000610922565b6104b39190610941565b6004546104c0919061097a565b60048190554360038190556040517f7a82ddc04b2a4dbbd6f9eb8a0eba412839065badf78dde2949d1b781b7ffe6689261050292908252602082015260400190565b60405180910390a1505050565b6001600160a01b03811660009081526005602052604081206004546002546003805490939291904311801561054357508015155b15610595576000610558856000015443610623565b905060006001548261056a9190610922565b90508261057c8264e8d4a51000610922565b6105869190610941565b610590908561097a565b935050505b6001830154835464e8d4a51000906105ae908590610922565b6105b89190610941565b6105c29190610963565b9695505050505050565b604080516001600160a01b038416602482015260448082018490528251808303909101815260649091019091526020810180516001600160e01b031663a9059cbb60e01b17905261061e908490610664565b505050565b6000600754821161063f576106388383610963565b905061065e565b60075483106106505750600061065e565b826007546106389190610963565b92915050565b60006106b9826040518060400160405280602081526020017f5361666545524332303a206c6f772d6c6576656c2063616c6c206661696c6564815250856001600160a01b03166107369092919063ffffffff16565b80519091501561061e57808060200190518101906106d79190610992565b61061e5760405162461bcd60e51b815260206004820152602a60248201527f5361666545524332303a204552433230206f7065726174696f6e20646964206e6044820152691bdd081cdd58d8d9595960b21b6064820152608401610258565b6060610745848460008561074d565b949350505050565b6060824710156107ae5760405162461bcd60e51b815260206004820152602660248201527f416464726573733a20696e73756666696369656e742062616c616e636520666f6044820152651c8818d85b1b60d21b6064820152608401610258565b600080866001600160a01b031685876040516107ca91906109e4565b60006040518083038185875af1925050503d8060008114610807576040519150601f19603f3d011682016040523d82523d6000602084013e61080c565b606091505b509150915061081d87838387610828565b979650505050505050565b6060831561089457825161088d576001600160a01b0385163b61088d5760405162461bcd60e51b815260206004820152601d60248201527f416464726573733a2063616c6c20746f206e6f6e2d636f6e74726163740000006044820152606401610258565b5081610745565b61074583838151156108a95781518083602001fd5b8060405162461bcd60e51b81526004016102589190610a00565b6000602082840312156108d557600080fd5b81356001600160a01b03811681146108ec57600080fd5b9392505050565b60006020828403121561090557600080fd5b5035919050565b634e487b7160e01b600052601160045260246000fd5b600081600019048311821515161561093c5761093c61090c565b500290565b60008261095e57634e487b7160e01b600052601260045260246000fd5b500490565b6000828210156109755761097561090c565b500390565b6000821982111561098d5761098d61090c565b500190565b6000602082840312156109a457600080fd5b815180151581146108ec57600080fd5b60005b838110156109cf5781810151838201526020016109b7565b838111156109de576000848401525b50505050565b600082516109f68184602087016109b4565b9190910192915050565b6020815260008251806020840152610a1f8160408501602087016109b4565b601f01601f1916919091016040019291505056fea26469706673582212201849f7826da32c56c34a814e3af8e8d0867d15b9d62e8f5d0eb1a0ab99f22c8364736f6c634300080b0033",
  "devdoc": {
    "kind": "dev",
    "methods": {},
    "version": 1
  },
  "userdoc": {
    "kind": "user",
    "methods": {},
    "version": 1
  },
  "storageLayout": {
    "storage": [
      {
        "astId": 1380,
        "contract": "contracts/MockStaking.sol:MockStaking",
        "label": "rewardToken",
        "offset": 0,
        "slot": "0",
        "type": "t_contract(IERC20)664"
      },
      {
        "astId": 1382,
        "contract": "contracts/MockStaking.sol:MockStaking",
        "label": "rewardPerBlock",
        "offset": 0,
        "slot": "1",
        "type": "t_uint256"
      },
      {
        "astId": 1384,
        "contract": "contracts/MockStaking.sol:MockStaking",
        "label": "totalrewardToken",
        "offset": 0,
        "slot": "2",
        "type": "t_uint256"
      },
      {
        "astId": 1387,
        "contract": "contracts/MockStaking.sol:MockStaking",
        "label": "poolInfo",
        "offset": 0,
        "slot": "3",
        "type": "t_struct(PoolInfo)1377_storage"
      },
      {
        "astId": 1392,
        "contract": "contracts/MockStaking.sol:MockStaking",
        "label": "userInfo",
        "offset": 0,
        "slot": "5",
        "type": "t_mapping(t_address,t_struct(UserInfo)1372_storage)"
      },
      {
        "astId": 1394,
        "contract": "contracts/MockStaking.sol:MockStaking",
        "label": "startBlock",
        "offset": 0,
        "slot": "6",
        "type": "t_uint256"
      },
      {
        "astId": 1396,
        "contract": "contracts/MockStaking.sol:MockStaking",
        "label": "bonusEndBlock",
        "offset": 0,
        "slot": "7",
        "type": "t_uint256"
      }
    ],
    "types": {
      "t_address": {
        "encoding": "inplace",
        "label": "address",
        "numberOfBytes": "20"
      },
      "t_contract(IERC20)664": {
        "encoding": "inplace",
        "label": "contract IERC20",
        "numberOfBytes": "20"
      },
      "t_mapping(t_address,t_struct(UserInfo)1372_storage)": {
        "encoding": "mapping",
        "key": "t_address",
        "label": "mapping(address => struct MockStaking.UserInfo)",
        "numberOfBytes": "32",
        "value": "t_struct(UserInfo)1372_storage"
      },
      "t_struct(PoolInfo)1377_storage": {
        "encoding": "inplace",
        "label": "struct MockStaking.PoolInfo",
        "members": [
          {
            "astId": 1374,
            "contract": "contracts/MockStaking.sol:MockStaking",
            "label": "lastRewardBlock",
            "offset": 0,
            "slot": "0",
            "type": "t_uint256"
          },
          {
            "astId": 1376,
            "contract": "contracts/MockStaking.sol:MockStaking",
            "label": "accRewardPerShare",
            "offset": 0,
            "slot": "1",
            "type": "t_uint256"
          }
        ],
        "numberOfBytes": "64"
      },
      "t_struct(UserInfo)1372_storage": {
        "encoding": "inplace",
        "label": "struct MockStaking.UserInfo",
        "members": [
          {
            "astId": 1369,
            "contract": "contracts/MockStaking.sol:MockStaking",
            "label": "amount",
            "offset": 0,
            "slot": "0",
            "type": "t_uint256"
          },
          {
            "astId": 1371,
            "contract": "contracts/MockStaking.sol:MockStaking",
            "label": "rewardDebt",
            "offset": 0,
            "slot": "1",
            "type": "t_uint256"
          }
        ],
        "numberOfBytes": "64"
      },
      "t_uint256": {
        "encoding": "inplace",
        "label": "uint256",
        "numberOfBytes": "32"
      }
    }
  }
}