{
  "address": "0x4481C72BeD678A6E35c7AEf2c1b111b2dC9bCb24",
  "abi": [
    {
      "inputs": [
        {
          "internalType": "address[]",
          "name": "recipients",
          "type": "address[]"
        },
        {
          "internalType": "uint256[]",
          "name": "amounts",
          "type": "uint256[]"
        }
      ],
      "name": "pay",
      "outputs": [],
      "stateMutability": "payable",
      "type": "function"
    }
  ],
  "transactionHash": "0x5f260b4882d12d1d04ed3b31a4e5ab30e57a2f504bc112030bad60a36c0bb64f",
  "args": [],
  "numDeployments": 1,
  "solcInputHash": "721e31905c7d11cf61562ccbb71e3196",
  "bytecode": "0x608060405234801561001057600080fd5b50610448806100206000396000f3fe60806040526004361061001e5760003560e01c8063084ce70814610023575b600080fd5b610036610031366004610305565b610038565b005b82811461008c5760405162461bcd60e51b815260206004820181905260248201527f496e76616c696420696e7075743a206d69736d6174636865642061727261797360448201526064015b60405180910390fd5b6000805b828110156100d0578383828181106100aa576100aa610371565b90506020020135826100bc919061039d565b9150806100c8816103b6565b915050610090565b50803410156101215760405162461bcd60e51b815260206004820152601760248201527f496e73756666696369656e742073656e742076616c75650000000000000000006044820152606401610083565b60005b8481101561021257600086868381811061014057610140610371565b905060200201602081019061015591906103cf565b6001600160a01b031685858481811061017057610170610371565b9050602002013560405160006040518083038185875af1925050503d80600081146101b7576040519150601f19603f3d011682016040523d82523d6000602084013e6101bc565b606091505b50509050806101ff5760405162461bcd60e51b815260206004820152600f60248201526e151c985b9cd9995c8819985a5b1959608a1b6044820152606401610083565b508061020a816103b6565b915050610124565b50600061021f82346103ff565b905080156102b157604051600090339083908381818185875af1925050503d8060008114610269576040519150601f19603f3d011682016040523d82523d6000602084013e61026e565b606091505b50509050806102af5760405162461bcd60e51b815260206004820152600d60248201526c1499599d5b990819985a5b1959609a1b6044820152606401610083565b505b505050505050565b60008083601f8401126102cb57600080fd5b50813567ffffffffffffffff8111156102e357600080fd5b6020830191508360208260051b85010111156102fe57600080fd5b9250929050565b6000806000806040858703121561031b57600080fd5b843567ffffffffffffffff8082111561033357600080fd5b61033f888389016102b9565b9096509450602087013591508082111561035857600080fd5b50610365878288016102b9565b95989497509550505050565b634e487b7160e01b600052603260045260246000fd5b634e487b7160e01b600052601160045260246000fd5b808201808211156103b0576103b0610387565b92915050565b6000600182016103c8576103c8610387565b5060010190565b6000602082840312156103e157600080fd5b81356001600160a01b03811681146103f857600080fd5b9392505050565b818103818111156103b0576103b061038756fea26469706673582212207541e2f1d719ec5454c5865effb0ee5b0dc88de09b7cc527528dba9d29559fb364736f6c63430008110033",
  "devdoc": {
    "kind": "dev",
    "methods": {},
    "version": 1
  },
  "userdoc": {
    "kind": "user",
    "methods": {},
    "version": 1
  },
  "storageLayout": {
    "storage": [],
    "types": null
  }
}